:100000000C9434000C9451000C9451000C94510049
:100010000C9451000C9451000C9451000C9451001C
:100020000C9451000C9451000C9451000C9451000C
:100030000C9451000C940B010C9451000C94510041
:100040000C9464030C9451000C94D0010C94510056
:100050000C9451000C9451000C9451000C945100DC
:100060000C9451000C94510011241FBECFEFD8E026
:10007000DEBFCDBF11E0A0E0B1E0E0E9F0E102C0F9
:1000800005900D92A232B107D9F721E0A2E2B1E0CA
:1000900001C01D92A238B207E1F70E94B7040C9488
:1000A00046080C940000CF93DF93CDB7DEB784E20F
:1000B00090E02FEFFC0120830000DF91CF910895A5
:1000C000CF93DF931F92CDB7DEB7898385E290E0AF
:1000D0002981FC01208300000F90DF91CF910895CA
:1000E000CF93DF931F92CDB7DEB7898385E290E08F
:1000F00025E230E0F9012081622F2981422F50E072
:1001000021E030E002C0220F331F4A95E2F7262B90
:10011000FC01208300000F90DF91CF910895CF93D1
:10012000DF931F92CDB7DEB7898385E290E025E2A9
:1001300030E0F9012081622F2981422F50E021E037
:1001400030E002C0220F331F4A95E2F720952623A4
:10015000FC01208300000F90DF91CF910895CF9391
:10016000DF93CDB7DEB78AE290E02FEFFC0120836A
:100170000000DF91CF910895CF93DF931F92CDB709
:10018000DEB789838BE290E02981FC0120830000A7
:100190000F90DF91CF910895CF93DF931F92CDB74A
:1001A000DEB789838BE290E02BE230E0F901208119
:1001B000622F2981422F50E021E030E002C0220F5F
:1001C000331F4A95E2F7262BFC01208300000F9095
:1001D000DF91CF910895CF93DF931F92CDB7DEB714
:1001E00089838BE290E02BE230E0F9012081622FDD
:1001F0002981422F50E021E030E002C0220F331F5E
:100200004A95E2F720952623FC01208300000F90F9
:10021000DF91CF9108951F920F9200905F000F928F
:1002200011242F933F934F935F936F937F938F93FB
:100230009F93AF93BF93EF93FF93CF93DF93CDB78C
:10024000DEB70E9458010000DF91CF91FF91EF913E
:10025000BF91AF919F918F917F916F915F914F91DE
:100260003F912F910F9000925F000F901F90189573
:10027000CF93DF93CDB7DEB784E290E024E230E0A5
:10028000F90120812260FC01208380E890E023E8CE
:10029000FC01208381E890E02AE0FC0120838FE6C6
:1002A00090E021E0FC0120830000DF91CF910895D0
:1002B000CF93DF93CDB7DEB70000DF91CF910895E4
:1002C000CF93DF9300D000D0CDB7DEB79C838B8374
:1002D0008B819C81880F991F9C01220F331F220F55
:1002E000331F820F931F9A83898388E890E02981C6
:1002F0003A813370FC013183208384E290E024E270
:1003000030E0F90120812260FC01208300000F9081
:100310000F900F900F90DF91CF910895CF93DF93BF
:1003200000D0CDB7DEB79A83898389819A81880FFF
:10033000991F909323018093220189819A810196CC
:1003400059F4109223011092220181E090E09093E1
:1003500025018093240104C01092250110922401EC
:1003600089819A81892B51F084E290E024E230E087
:10037000F90120812260FC0120830CC089819A81CF
:10038000892B41F484E290E0FC01808184E290E0DA
:10039000FC01108200000F900F90DF91CF91089523
:1003A0001F920F9200905F000F9211242F933F93A2
:1003B0004F935F936F937F938F939F93AF93BF936D
:1003C000EF93FF93CF93DF93CDB7DEB70E94AD02DB
:1003D0000000DF91CF91FF91EF91BF91AF919F917D
:1003E0008F917F916F915F914F913F912F910F90DE
:1003F00000925F000F901F901895CF93DF9300D06D
:10040000CDB7DEB780E190E09A83898385EC90E0F8
:1004100029813A81232F3327FC01208384EC90E04B
:100420002981FC01208381EC90E028E1FC012083FC
:1004300082EC90E026E0FC01208381EC90E021EC4E
:1004400030E0F90120812068FC01208300000F903A
:100450000F90DF91CF910895CF93DF931F92CDB787
:10046000DEB78983000080EC90E0FC018081882F5A
:1004700090E080729927892BB1F386EC90E0298176
:10048000FC01208300000F90DF91CF910895CF935E
:10049000DF93CDB7DEB7000080EC90E0FC018081F7
:1004A0008823D4F786EC90E0FC018081DF91CF9126
:1004B0000895CF93DF9300D01F92CDB7DEB7898325
:1004C0007B836A8389818A3031F48A819B81BC0174
:1004D0008DE00E945902000080EC90E0FC018081D8
:1004E000882F90E080729927892BB1F386EC90E0F9
:1004F0002981FC01208300000F900F900F90DF9165
:10050000CF910895CF93DF9300D0CDB7DEB79A8314
:100510008983000080EC90E0FC0180818823D4F77F
:1005200086EC90E0FC0180810F900F90DF91CF91DD
:100530000895CF93DF93CDB7DEB78EE091E090932F
:100540007D0180937C0180E091E090937F01809316
:100550007E010000DF91CF910895CF93DF931F922A
:10056000CDB7DEB70E944702898380912601909122
:100570002701885D9E4F2981FC01208389818D336D
:1005800089F48091260190912701885D9E4FFC019E
:10059000108288E291E00E943604109227011092A6
:1005A000260124C089818C3769F4809126019091BD
:1005B0002701885D9E4FFC01108210922701109246
:1005C000260114C0809126019091270101969093F5
:1005D0002701809326018091260190912701803583
:1005E000910524F088E291E00E94A60400000F909B
:1005F000DF91CF910895CF93DF93CDB7DEB78EE62D
:1006000090E02EE630E0F90120812160FC0120839A
:100610000000DF91CF910895CF93DF93CDB7DEB780
:1006200010927B0110927A0185E490E025E430E09D
:10063000F90120812160FC0120830000DF91CF912E
:100640000895CF93DF93CDB7DEB785E490E025E43E
:1006500030E0F90120812E7FFC0120830000DF9132
:10066000CF910895CF93DF93CDB7DEB786E490E0C6
:10067000FC018081282F30E080917A0190917B01EC
:10068000982F8827820F931F292F2F938F938CE108
:1006900091E0892F8F938CE191E08F930E94160552
:1006A0000F900F900F900F900000DF91CF91089561
:1006B000CF93DF93CDB7DEB786E490E0FC011082E4
:1006C0000000DF91CF9108951F920F9200905F007C
:1006D0000F9211248F939F93CF93DF93CDB7DEB703
:1006E00080917A0190917B01019690937B01809398
:1006F0007A010000DF91CF919F918F910F9000922E
:100700005F000F901F901895CF93DF93CDB7DEB7A2
:10071000C65AD1090FB6F894DEBF0FBECDBF9E01F9
:100720002B553F4FF90191838083809178019091FF
:100730007901029729F48FEF9FEF9A8389838AC00A
:10074000809178019091790104970CF474C0CE01E6
:100750008B559F4FFC01808191810296FC01808125
:10076000082E000C990BC097292F2F938F938CE1A3
:1007700091E0892F8F938CE191E08F93CE018B5A7A
:100780009F4F292F2F938F930E945C050F900F90FE
:100790000F900F900F900F9083E090E09C838B83DD
:1007A00035C08B819C819E012B553F4FF9012081E3
:1007B0003181820F931FFC018081082E000C990B60
:1007C000C097292F2F938F938CE191E0892F8F93DE
:1007D0008CE191E08F93CE010596292F2F938F9373
:1007E0000E945C050F900F900F900F900F900F904C
:1007F0009E012B5F3F4FCE018B5A9F4FB9010E9444
:10080000FA048B819C8101969C838B838091780173
:10081000909179019C01215031098B819C8128178D
:1008200039070CF0BECFCE018B5A9F4F0E94DC04DB
:100830009A8389830FC0CE018B559F4FFC01808125
:1008400091810296FC018081082E000C990BC097C3
:100850009A83898389819A81CA55DF4F0FB6F894AC
:10086000DEBF0FBECDBFDF91CF910895CF93DF9351
:1008700000D0CDB7DEB79A8389830E940C03F89429
:1008800089819A810E94050590937901809378016E
:1008900089819A81FC018081833531F089819A8137
:1008A000FC018081833771F480E090E00E94600158
:1008B00084E290E024E230E0F90120812D7FFC0108
:1008C000208337C089819A81FC018081863431F090
:1008D00089819A81FC018081863681F489819A819F
:1008E0000E9484030E94600184E290E024E230E0F0
:1008F000F90120812260FC0120831BC089819A813B
:10090000FC018081823531F089819A81FC018081EE
:10091000823779F489819A810E9484030E94600160
:1009200084E290E024E230E0F90120812260FC01C1
:10093000208378940E9421030E9432030E9458036E
:1009400000000F900F90DF91CF910895CF93DF9328
:1009500000D0CDB7DEB79A8389838FE191E00E9402
:100960002C0500000F900F90DF91CF910895CF9349
:10097000DF93CDB7DEB70E94530080E00E94600095
:100980000E94AF0080E00E94BC000E94FD010E9416
:1009900099020E94380180E090E00E9460010E946C
:1009A000FB02789484E290E024E230E0F9012081B7
:1009B0002D7FFC012083FFCFFC0188279927E89435
:1009C00021912032E9F3293010F02E30C8F32B3278
:1009D00041F02D3239F4689404C00E940E05820F54
:1009E000911D219120532A30C0F31EF490958195DA
:1009F0009F4F0895FB01DC010D900020E9F711974E
:100A000001900D920020E1F70895FC010190002073
:100A1000E9F7809590958E0F9F1F08957AE0979F34
:100A2000902D879F802D910D11240895A0E0B0E0B6
:100A3000ECE1F5E00C941F08AE014B5F5F4FFA014B
:100A400061917191AF0180917E0190917F010E942F
:100A50007E05E2E00C943B080F931F93CF93DF9346
:100A6000E0917E01F0917F01238121FF1BC08C0169
:100A7000D0E0C0E0F80181918F0160917E0170911A
:100A80007F01DB011896ED91FC911997882331F0D5
:100A90000995892B79F3DFEFCFEFECCF8AE0099549
:100AA000892B19F08FEF9FEF02C08D2F9C2FDF91C4
:100AB000CF911F910F910895AEE0B0E0E2E6F5E02E
:100AC0000C941D080D891E8986E08C831A83098386
:100AD0008FEF9FE79E838D83AE01475E5F4F6F89E7
:100AE000788DCE0101960E947E05EF81F885E00F9A
:100AF000F11F10822E96E4E00C943908ABE0B0E0D0
:100B0000E4E8F5E00C940F086C017B018A01FC011C
:100B100017821682838181FFCCC1CE0101963C01F0
:100B2000F6019381F70193FD859193FF81917F01F8
:100B3000882309F4BAC1853239F493FD859193FF76
:100B400081917F01853229F4B60190E00E947507FA
:100B5000E7CF912C212C312CFFE1F315D8F08B320B
:100B600079F038F4803279F08332A1F4232D2061BA
:100B70001DC08D3261F0803369F4232D216016C0D1
:100B8000832D8260382EE32DE4603E2E2AC0F32DA3
:100B9000F8601DC037FC2DC020ED280F2A3040F032
:100BA0008E32B9F436FC81C1232D2064322E19C057
:100BB00036FE06C08AE0989E200D1124922E11C0A8
:100BC000EAE02E9E200D1124222EF32DF0623F2EFE
:100BD00008C08C3621F4832D8068382E02C08836F8
:100BE00041F4F70193FD859193FF81917F0181117C
:100BF000B3CF982F9F7D9554933028F40C5F1F4FEF
:100C00009FE399830DC0833631F0833771F08335CC
:100C100009F059C021C0F801808189830E5F1F4F00
:100C200088248394912C530113C02801F2E04F0EC5
:100C3000511CF801A080B18036FE03C0692D70E020
:100C400002C06FEF7FEFC5010E946A074C0182016D
:100C5000F32DFF773F2E16C0280122E0420E511CD3
:100C6000F801A080B18036FE03C0692D70E002C09B
:100C70006FEF7FEFC5010E945F074C01F32DF06815
:100C80003F2E820133FC1BC0822D90E0881699060E
:100C9000B0F4B60180E290E00E9475072A94F4CF88
:100CA000F50137FC859137FE81915F01B60190E037
:100CB0000E94750721102A9421E0821A910881145C
:100CC000910471F7E8C0843611F0893641F5F801D6
:100CD00037FE07C060817181828193810C5F1F4F55
:100CE00008C060817181072E000C880B990B0E5F84
:100CF0001F4FF32DFF763F2E97FF09C090958095EB
:100D0000709561957F4F8F4F9F4FF0683F2E2AE07F
:100D100030E0A3010E94B107882E861845C08537B0
:100D200031F4232D2F7EB22E2AE030E025C0932D02
:100D3000997FB92E8F36C1F018F4883579F0B5C097
:100D4000803719F0883721F0B0C0E92FE061BE2E5E
:100D5000B4FE0DC0FB2DF460BF2E09C034FE0AC0E6
:100D6000292F2660B22E06C028E030E005C020E121
:100D700030E002C020E132E0F801B7FE07C0608138
:100D80007181828193810C5F1F4F06C060817181E8
:100D900080E090E00E5F1F4FA3010E94B107882EF4
:100DA0008618FB2DFF773F2E36FE0DC0232D2E7F9C
:100DB000A22E891458F434FE0BC032FC09C0832DD6
:100DC0008E7EA82E05C0B82CA32C03C0B82C01C061
:100DD000B92CA4FE0FC0FE01E80DF11D8081803307
:100DE00021F49A2D997EA92E09C0A2FE06C0B394C3
:100DF000B39404C08A2D867809F0B394A3FC11C083
:100E0000A0FE06C0B21488F4280C922C9B180EC0C9
:100E1000B21460F4B60180E290E00E947507B394CA
:100E2000F7CFB21418F42B1802C0982C212CA4FE72
:100E300010C0B60180E390E00E947507A2FE17C0C3
:100E4000A1FC03C088E790E002C088E590E0B6010D
:100E50000CC08A2D867859F0A1FE02C08BE201C039
:100E600080E2A7FC8DE2B60190E00E94750789142C
:100E700038F4B60180E390E00E9475079A94F7CFAA
:100E80008A94F301E80DF11D8081B60190E00E9483
:100E900075078110F5CF222009F442CEB60180E219
:100EA00090E00E9475072A94F6CFF601868197811B
:100EB00002C08FEF9FEF2B96E2E10C942B08FC0110
:100EC0000590615070400110D8F7809590958E0F75
:100ED0009F1F0895FC016150704001900110D8F7E8
:100EE000809590958E0F9F1F08950F931F93CF931A
:100EF000DF93FB01238121FD03C08FEF9FEF2CC007
:100F000022FF16C04681578124813581421753073D
:100F100044F4A081B1819D012F5F3F4F3183208335
:100F20008C93268137812F5F3F4F3783268314C0F0
:100F30008B01EC01FB010084F185E02D0995892BE3
:100F4000E1F6D80116968D919C9117970196179608
:100F50009C938E931697CE01DF91CF911F910F91A5
:100F60000895FA01AA27283051F1203181F1E8943F
:100F70006F936E7F6E5F7F4F8F4F9F4FAF4FB1E08C
:100F80003ED0B4E03CD0670F781F891F9A1FA11D87
:100F9000680F791F8A1F911DA11D6A0F711D811D88
:100FA000911DA11D20D009F468943F912AE0269F4D
:100FB00011243019305D3193DEF6CF010895462FAC
:100FC0004770405D4193B3E00FD0C9F7F6CF462F8D
:100FD0004F70405D4A3318F0495D31FD40524193F6
:100FE00002D0A9F7EACFB4E0A695979587957795B3
:100FF0006795BA95C9F700976105710508959B013A
:10100000AC010A2E06945795479537952795BA95C2
:10101000C9F7620F731F841F951FA01D08952F929B
:101020003F924F925F926F927F928F929F92AF9278
:10103000BF92CF92DF92EF92FF920F931F93CF93C5
:10104000DF93CDB7DEB7CA1BDB0B0FB6F894DEBF5C
:101050000FBECDBF09942A88398848885F846E8482
:101060007D848C849B84AA84B984C884DF80EE80CC
:10107000FD800C811B81AA81B981CE0FD11D0FB6D5
:10108000F894DEBF0FBECDBFED010895F894FFCFF9
:1010900000000002000000005902000000000000F3
:1010A0000001000000000000820200002564003FF3
:0210B00000003E
:00000001FF
